:020000020000FC
:100000000C9430000C942A000C942A000C942A00C2
:100010000C942A000C942A000C942A000C942A00B8
:100020000C942A000C942A000C942A000C942A00A8
:100030000C942A000C942A000C942A000C942A0098
:100040000C942A000C942A000C942A000C942A0088
:060050000C942A00189533
:1000600000245FE55DBF54E05EBF50E854BF54BF5D
:100070005FEF5ABB57BB54BB51BB0BBA08BA05BAAA
:1000800002BA33C0272E84E195EF9A95F1F78A954D
:10009000D9F72A94C1F7089571E0C0E1C2BBE5BB6E
:1000A000F1DFC4E1C2BB15BBEDDFC8E1C2BB25BBBC
:1000B000E9DFCCE1C2BB35BBE5DF0895E0E5F1E067
:1000C0000895AAE5B1E00895F9DFEE0FF01D44911F
:1000D000F5DFE10FF01D4491F1DFE20FF01D5491C7
:1000E000EDDFE30FF01D64910895EEDFD5DF83951A
:1000F000382F3150E9DFD0DF74E6C4DF8A30B9F33E
:10010000882700D09395292F2150DEDFC5DF74E6C4
:10011000B9DF9A3061F700D0A3951A2F1150D4DFC0
:10012000BBDF74E6AFDFAA3011F700D0B395EB2F39
:10013000E150CADFB1DF74E6A5DFBA30C1F6882727
:100140009927AA27BB27332722271127EE27CDCFB0
:0A015000C0F9A4B0999282F88090E3
:00000001FF
